{
  "_format": "hh-sol-artifact-1",
  "contractName": "CredentialNFT",
  "sourceName": "contracts/CredentialNFT.sol",
  "abi": [
    {
      "inputs": [],
      "stateMutability": "nonpayable",
      "type": "constructor"
    },
    {
      "anonymous": false,
      "inputs": [
        {
          "indexed": true,
          "internalType": "address",
          "name": "owner",
          "type": "address"
        },
        {
          "indexed": true,
          "internalType": "address",
          "name": "approved",
          "type": "address"
        },
        {
          "indexed": true,
          "internalType": "uint256",
          "name": "tokenId",
          "type": "uint256"
        }
      ],
      "name": "Approval",
      "type": "event"
    },
    {
      "anonymous": false,
      "inputs": [
        {
          "indexed": true,
          "internalType": "address",
          "name": "owner",
          "type": "address"
        },
        {
          "indexed": true,
          "internalType": "address",
          "name": "operator",
          "type": "address"
        },
        {
          "indexed": false,
          "internalType": "bool",
          "name": "approved",
          "type": "bool"
        }
      ],
      "name": "ApprovalForAll",
      "type": "event"
    },
    {
      "anonymous": false,
      "inputs": [
        {
          "indexed": true,
          "internalType": "uint256",
          "name": "tokenId",
          "type": "uint256"
        },
        {
          "indexed": true,
          "internalType": "address",
          "name": "recipient",
          "type": "address"
        },
        {
          "indexed": false,
          "internalType": "string",
          "name": "credentialType",
          "type": "string"
        },
        {
          "indexed": false,
          "internalType": "string",
          "name": "title",
          "type": "string"
        }
      ],
      "name": "CredentialIssued",
      "type": "event"
    },
    {
      "anonymous": false,
      "inputs": [
        {
          "indexed": true,
          "internalType": "uint256",
          "name": "tokenId",
          "type": "uint256"
        }
      ],
      "name": "CredentialRevoked",
      "type": "event"
    },
    {
      "anonymous": false,
      "inputs": [
        {
          "indexed": true,
          "internalType": "bytes32",
          "name": "role",
          "type": "bytes32"
        },
        {
          "indexed": true,
          "internalType": "bytes32",
          "name": "previousAdminRole",
          "type": "bytes32"
        },
        {
          "indexed": true,
          "internalType": "bytes32",
          "name": "newAdminRole",
          "type": "bytes32"
        }
      ],
      "name": "RoleAdminChanged",
      "type": "event"
    },
    {
      "anonymous": false,
      "inputs": [
        {
          "indexed": true,
          "internalType": "bytes32",
          "name": "role",
          "type": "bytes32"
        },
        {
          "indexed": true,
          "internalType": "address",
          "name": "account",
          "type": "address"
        },
        {
          "indexed": true,
          "internalType": "address",
          "name": "sender",
          "type": "address"
        }
      ],
      "name": "RoleGranted",
      "type": "event"
    },
    {
      "anonymous": false,
      "inputs": [
        {
          "indexed": true,
          "internalType": "bytes32",
          "name": "role",
          "type": "bytes32"
        },
        {
          "indexed": true,
          "internalType": "address",
          "name": "account",
          "type": "address"
        },
        {
          "indexed": true,
          "internalType": "address",
          "name": "sender",
          "type": "address"
        }
      ],
      "name": "RoleRevoked",
      "type": "event"
    },
    {
      "anonymous": false,
      "inputs": [
        {
          "indexed": true,
          "internalType": "address",
          "name": "from",
          "type": "address"
        },
        {
          "indexed": true,
          "internalType": "address",
          "name": "to",
          "type": "address"
        },
        {
          "indexed": true,
          "internalType": "uint256",
          "name": "tokenId",
          "type": "uint256"
        }
      ],
      "name": "Transfer",
      "type": "event"
    },
    {
      "inputs": [],
      "name": "DEFAULT_ADMIN_ROLE",
      "outputs": [
        {
          "internalType": "bytes32",
          "name": "",
          "type": "bytes32"
        }
      ],
      "stateMutability": "view",
      "type": "function"
    },
    {
      "inputs": [],
      "name": "ISSUER_ROLE",
      "outputs": [
        {
          "internalType": "bytes32",
          "name": "",
          "type": "bytes32"
        }
      ],
      "stateMutability": "view",
      "type": "function"
    },
    {
      "inputs": [
        {
          "internalType": "address",
          "name": "to",
          "type": "address"
        },
        {
          "internalType": "uint256",
          "name": "tokenId",
          "type": "uint256"
        }
      ],
      "name": "approve",
      "outputs": [],
      "stateMutability": "nonpayable",
      "type": "function"
    },
    {
      "inputs": [
        {
          "internalType": "address",
          "name": "owner",
          "type": "address"
        }
      ],
      "name": "balanceOf",
      "outputs": [
        {
          "internalType": "uint256",
          "name": "",
          "type": "uint256"
        }
      ],
      "stateMutability": "view",
      "type": "function"
    },
    {
      "inputs": [
        {
          "internalType": "uint256",
          "name": "",
          "type": "uint256"
        }
      ],
      "name": "credentials",
      "outputs": [
        {
          "internalType": "string",
          "name": "credentialType",
          "type": "string"
        },
        {
          "internalType": "string",
          "name": "title",
          "type": "string"
        },
        {
          "internalType": "string",
          "name": "description",
          "type": "string"
        },
        {
          "internalType": "address",
          "name": "issuer",
          "type": "address"
        },
        {
          "internalType": "uint256",
          "name": "issuedAt",
          "type": "uint256"
        },
        {
          "internalType": "bool",
          "name": "revoked",
          "type": "bool"
        },
        {
          "internalType": "string",
          "name": "metadataURI",
          "type": "string"
        }
      ],
      "stateMutability": "view",
      "type": "function"
    },
    {
      "inputs": [
        {
          "internalType": "uint256",
          "name": "tokenId",
          "type": "uint256"
        }
      ],
      "name": "getApproved",
      "outputs": [
        {
          "internalType": "address",
          "name": "",
          "type": "address"
        }
      ],
      "stateMutability": "view",
      "type": "function"
    },
    {
      "inputs": [
        {
          "internalType": "uint256",
          "name": "tokenId",
          "type": "uint256"
        }
      ],
      "name": "getCredential",
      "outputs": [
        {
          "components": [
            {
              "internalType": "string",
              "name": "credentialType",
              "type": "string"
            },
            {
              "internalType": "string",
              "name": "title",
              "type": "string"
            },
            {
              "internalType": "string",
              "name": "description",
              "type": "string"
            },
            {
              "internalType": "address",
              "name": "issuer",
              "type": "address"
            },
            {
              "internalType": "uint256",
              "name": "issuedAt",
              "type": "uint256"
            },
            {
              "internalType": "bool",
              "name": "revoked",
              "type": "bool"
            },
            {
              "internalType": "string",
              "name": "metadataURI",
              "type": "string"
            }
          ],
          "internalType": "struct CredentialNFT.Credential",
          "name": "",
          "type": "tuple"
        }
      ],
      "stateMutability": "view",
      "type": "function"
    },
    {
      "inputs": [
        {
          "internalType": "address",
          "name": "owner",
          "type": "address"
        }
      ],
      "name": "getOwnerCredentials",
      "outputs": [
        {
          "internalType": "uint256[]",
          "name": "",
          "type": "uint256[]"
        }
      ],
      "stateMutability": "view",
      "type": "function"
    },
    {
      "inputs": [
        {
          "internalType": "bytes32",
          "name": "role",
          "type": "bytes32"
        }
      ],
      "name": "getRoleAdmin",
      "outputs": [
        {
          "internalType": "bytes32",
          "name": "",
          "type": "bytes32"
        }
      ],
      "stateMutability": "view",
      "type": "function"
    },
    {
      "inputs": [
        {
          "internalType": "bytes32",
          "name": "role",
          "type": "bytes32"
        },
        {
          "internalType": "address",
          "name": "account",
          "type": "address"
        }
      ],
      "name": "grantRole",
      "outputs": [],
      "stateMutability": "nonpayable",
      "type": "function"
    },
    {
      "inputs": [
        {
          "internalType": "bytes32",
          "name": "role",
          "type": "bytes32"
        },
        {
          "internalType": "address",
          "name": "account",
          "type": "address"
        }
      ],
      "name": "hasRole",
      "outputs": [
        {
          "internalType": "bool",
          "name": "",
          "type": "bool"
        }
      ],
      "stateMutability": "view",
      "type": "function"
    },
    {
      "inputs": [
        {
          "internalType": "address",
          "name": "owner",
          "type": "address"
        },
        {
          "internalType": "address",
          "name": "operator",
          "type": "address"
        }
      ],
      "name": "isApprovedForAll",
      "outputs": [
        {
          "internalType": "bool",
          "name": "",
          "type": "bool"
        }
      ],
      "stateMutability": "view",
      "type": "function"
    },
    {
      "inputs": [
        {
          "internalType": "address",
          "name": "recipient",
          "type": "address"
        },
        {
          "internalType": "string",
          "name": "credentialType",
          "type": "string"
        },
        {
          "internalType": "string",
          "name": "title",
          "type": "string"
        },
        {
          "internalType": "string",
          "name": "description",
          "type": "string"
        },
        {
          "internalType": "string",
          "name": "metadataURI",
          "type": "string"
        }
      ],
      "name": "issueCredential",
      "outputs": [
        {
          "internalType": "uint256",
          "name": "",
          "type": "uint256"
        }
      ],
      "stateMutability": "nonpayable",
      "type": "function"
    },
    {
      "inputs": [],
      "name": "name",
      "outputs": [
        {
          "internalType": "string",
          "name": "",
          "type": "string"
        }
      ],
      "stateMutability": "view",
      "type": "function"
    },
    {
      "inputs": [
        {
          "internalType": "uint256",
          "name": "tokenId",
          "type": "uint256"
        }
      ],
      "name": "ownerOf",
      "outputs": [
        {
          "internalType": "address",
          "name": "",
          "type": "address"
        }
      ],
      "stateMutability": "view",
      "type": "function"
    },
    {
      "inputs": [
        {
          "internalType": "bytes32",
          "name": "role",
          "type": "bytes32"
        },
        {
          "internalType": "address",
          "name": "account",
          "type": "address"
        }
      ],
      "name": "renounceRole",
      "outputs": [],
      "stateMutability": "nonpayable",
      "type": "function"
    },
    {
      "inputs": [
        {
          "internalType": "uint256",
          "name": "tokenId",
          "type": "uint256"
        }
      ],
      "name": "revokeCredential",
      "outputs": [],
      "stateMutability": "nonpayable",
      "type": "function"
    },
    {
      "inputs": [
        {
          "internalType": "bytes32",
          "name": "role",
          "type": "bytes32"
        },
        {
          "internalType": "address",
          "name": "account",
          "type": "address"
        }
      ],
      "name": "revokeRole",
      "outputs": [],
      "stateMutability": "nonpayable",
      "type": "function"
    },
    {
      "inputs": [
        {
          "internalType": "address",
          "name": "from",
          "type": "address"
        },
        {
          "internalType": "address",
          "name": "to",
          "type": "address"
        },
        {
          "internalType": "uint256",
          "name": "tokenId",
          "type": "uint256"
        }
      ],
      "name": "safeTransferFrom",
      "outputs": [],
      "stateMutability": "nonpayable",
      "type": "function"
    },
    {
      "inputs": [
        {
          "internalType": "address",
          "name": "from",
          "type": "address"
        },
        {
          "internalType": "address",
          "name": "to",
          "type": "address"
        },
        {
          "internalType": "uint256",
          "name": "tokenId",
          "type": "uint256"
        },
        {
          "internalType": "bytes",
          "name": "data",
          "type": "bytes"
        }
      ],
      "name": "safeTransferFrom",
      "outputs": [],
      "stateMutability": "nonpayable",
      "type": "function"
    },
    {
      "inputs": [
        {
          "internalType": "address",
          "name": "operator",
          "type": "address"
        },
        {
          "internalType": "bool",
          "name": "approved",
          "type": "bool"
        }
      ],
      "name": "setApprovalForAll",
      "outputs": [],
      "stateMutability": "nonpayable",
      "type": "function"
    },
    {
      "inputs": [
        {
          "internalType": "bytes4",
          "name": "interfaceId",
          "type": "bytes4"
        }
      ],
      "name": "supportsInterface",
      "outputs": [
        {
          "internalType": "bool",
          "name": "",
          "type": "bool"
        }
      ],
      "stateMutability": "view",
      "type": "function"
    },
    {
      "inputs": [],
      "name": "symbol",
      "outputs": [
        {
          "internalType": "string",
          "name": "",
          "type": "string"
        }
      ],
      "stateMutability": "view",
      "type": "function"
    },
    {
      "inputs": [
        {
          "internalType": "uint256",
          "name": "tokenId",
          "type": "uint256"
        }
      ],
      "name": "tokenURI",
      "outputs": [
        {
          "internalType": "string",
          "name": "",
          "type": "string"
        }
      ],
      "stateMutability": "view",
      "type": "function"
    },
    {
      "inputs": [
        {
          "internalType": "address",
          "name": "from",
          "type": "address"
        },
        {
          "internalType": "address",
          "name": "to",
          "type": "address"
        },
        {
          "internalType": "uint256",
          "name": "tokenId",
          "type": "uint256"
        }
      ],
      "name": "transferFrom",
      "outputs": [],
      "stateMutability": "nonpayable",
      "type": "function"
    },
    {
      "inputs": [
        {
          "internalType": "uint256",
          "name": "tokenId",
          "type": "uint256"
        },
        {
          "internalType": "address",
          "name": "owner",
          "type": "address"
        }
      ],
      "name": "verifyCredential",
      "outputs": [
        {
          "internalType": "bool",
          "name": "",
          "type": "bool"
        }
      ],
      "stateMutability": "view",
      "type": "function"
    }
  ],
  "bytecode": "0x60806040523480156200001157600080fd5b506040518060400160405280601281526020017114dd1d59195b9d0810dc9959195b9d1a585b60721b8152506040518060400160405280600481526020016310d4915160e21b81525081600090816200006b919062000208565b5060016200007a828262000208565b506200008c91506000905033620000be565b620000b87f114e74f6ea3bd819998f78687bfcb11b140da08e9b7d222fa9c1f1ba1f2aa12233620000be565b620002d4565b60008281526006602090815260408083206001600160a01b038516845290915290205460ff166200015f5760008281526006602090815260408083206001600160a01b03851684529091529020805460ff191660011790556200011e3390565b6001600160a01b0316816001600160a01b0316837f2f8788117e7eff1d82e926ec794901d17c78024a50270940304540a733656f0d60405160405180910390a45b5050565b634e487b7160e01b600052604160045260246000fd5b600181811c908216806200018e57607f821691505b602082108103620001af57634e487b7160e01b600052602260045260246000fd5b50919050565b601f8211156200020357600081815260208120601f850160051c81016020861015620001de5750805b601f850160051c820191505b81811015620001ff57828155600101620001ea565b5050505b505050565b81516001600160401b0381111562000224576200022462000163565b6200023c8162000235845462000179565b84620001b5565b602080601f8311600181146200027457600084156200025b5750858301515b600019600386901b1c1916600185901b178555620001ff565b600085815260208120601f198616915b82811015620002a55788860151825594840194600190910190840162000284565b5085821015620002c45787850151600019600388901b60f8161c191681555b5050505050600190811b01905550565b61258d80620002e46000396000f3fe608060405234801561001057600080fd5b506004361061018e5760003560e01c806370a08231116100de578063a22cb46511610097578063d547741f11610071578063d547741f1461039c578063e0574e3f146103af578063e985e9c5146103d5578063ee6f13e91461041157600080fd5b8063a22cb46514610363578063b88d4fde14610376578063c87b56dd1461038957600080fd5b806370a08231146102e657806382aefa24146102f95780638dd18d2d1461032057806391d148541461034057806395d89b4114610353578063a217fddf1461035b57600080fd5b8063248a9ca31161014b57806342842e0e1161012557806342842e0e1461028d5780635a285980146102a05780636352211e146102c0578063638bf77e146102d357600080fd5b8063248a9ca3146102365780632f2ff15d1461026757806336568abe1461027a57600080fd5b806301ffc9a71461019357806306fdde03146101bb578063081812fc146101d0578063095ea7b3146101fb5780631b87278d1461021057806323b872dd14610223575b600080fd5b6101a66101a1366004611c78565b610424565b60405190151581526020015b60405180910390f35b6101c3610435565b6040516101b29190611ce5565b6101e36101de366004611cf8565b6104c7565b6040516001600160a01b0390911681526020016101b2565b61020e610209366004611d2d565b6104ee565b005b61020e61021e366004611cf8565b610608565b61020e610231366004611d57565b6106f2565b610259610244366004611cf8565b60009081526006602052604090206001015490565b6040519081526020016101b2565b61020e610275366004611d93565b610723565b61020e610288366004611d93565b610748565b61020e61029b366004611d57565b6107c6565b6102b36102ae366004611dbf565b6107e1565b6040516101b29190611dda565b6101e36102ce366004611cf8565b61084d565b6102596102e1366004611eca565b6108ad565b6102596102f4366004611dbf565b610a4c565b6102597f114e74f6ea3bd819998f78687bfcb11b140da08e9b7d222fa9c1f1ba1f2aa12281565b61033361032e366004611cf8565b610ad2565b6040516101b29190611f88565b6101a661034e366004611d93565b610dd9565b6101c3610e04565b610259600081565b61020e610371366004612038565b610e13565b61020e610384366004612074565b610e1e565b6101c3610397366004611cf8565b610e56565b61020e6103aa366004611d93565b610f14565b6103c26103bd366004611cf8565b610f39565b6040516101b297969594939291906120f0565b6101a66103e3366004612169565b6001600160a01b03918216600090815260056020908152604080832093909416825291909152205460ff1690565b6101a661041f366004611d93565b6111a6565b600061042f826111fb565b92915050565b60606000805461044490612193565b80601f016020809104026020016040519081016040528092919081815260200182805461047090612193565b80156104bd5780601f10610492576101008083540402835291602001916104bd565b820191906000526020600020905b8154815290600101906020018083116104a057829003601f168201915b5050505050905090565b60006104d282611220565b506000908152600460205260409020546001600160a01b031690565b60006104f98261084d565b9050806001600160a01b0316836001600160a01b03160361056b5760405162461bcd60e51b815260206004820152602160248201527f4552433732313a20617070726f76616c20746f2063757272656e74206f776e656044820152603960f91b60648201526084015b60405180910390fd5b336001600160a01b0382161480610587575061058781336103e3565b6105f95760405162461bcd60e51b815260206004820152603d60248201527f4552433732313a20617070726f76652063616c6c6572206973206e6f7420746f60448201527f6b656e206f776e6572206f7220617070726f76656420666f7220616c6c0000006064820152608401610562565b6106038383611273565b505050565b7f114e74f6ea3bd819998f78687bfcb11b140da08e9b7d222fa9c1f1ba1f2aa122610632816112e1565b61063b826112eb565b6106575760405162461bcd60e51b8152600401610562906121cd565b60008281526008602052604090206005015460ff16156106ab5760405162461bcd60e51b815260206004820152600f60248201526e105b1c9958591e481c995d9bdad959608a1b6044820152606401610562565b600082815260086020526040808220600501805460ff191660011790555183917f0d47d5695004d2a4180ebb40037756439184993a0d1c6d4a8ff3a6aa9325607491a25050565b6106fc3382611308565b6107185760405162461bcd60e51b815260040161056290612204565b610603838383611387565b60008281526006602052604090206001015461073e816112e1565b61060383836114f8565b6001600160a01b03811633146107b85760405162461bcd60e51b815260206004820152602f60248201527f416363657373436f6e74726f6c3a2063616e206f6e6c792072656e6f756e636560448201526e103937b632b9903337b91039b2b63360891b6064820152608401610562565b6107c2828261157e565b5050565b61060383838360405180602001604052806000815250610e1e565b6001600160a01b03811660009081526009602090815260409182902080548351818402810184019094528084526060939283018282801561084157602002820191906000526020600020905b81548152602001906001019080831161082d575b50505050509050919050565b6000818152600260205260408120546001600160a01b03168061042f5760405162461bcd60e51b8152602060048201526018602482015277115490cdcc8c4e881a5b9d985b1a59081d1bdad95b88125160421b6044820152606401610562565b60007f114e74f6ea3bd819998f78687bfcb11b140da08e9b7d222fa9c1f1ba1f2aa1226108d9816112e1565b6108e7600780546001019055565b60006108f260075490565b90506108fe88826115e5565b6040805160e0810182528881526020808201899052818301889052336060830152426080830152600060a0830181905260c083018890528481526008909152919091208151819061094f908261229f565b5060208201516001820190610964908261229f565b5060408201516002820190610979908261229f565b5060608201516003820180546001600160a01b0319166001600160a01b039092169190911790556080820151600482015560a082015160058201805460ff191691151591909117905560c082015160068201906109d6908261229f565b5050506001600160a01b0388166000818152600960209081526040808320805460018101825590845291909220018390555182907ff125e14c6fb906a318eb748924fbd52178990350719058d7bb3b5eafe68ffc4890610a39908b908b9061235f565b60405180910390a3979650505050505050565b60006001600160a01b038216610ab65760405162461bcd60e51b815260206004820152602960248201527f4552433732313a2061646472657373207a65726f206973206e6f7420612076616044820152683634b21037bbb732b960b91b6064820152608401610562565b506001600160a01b031660009081526003602052604090205490565b610b1d6040518060e0016040528060608152602001606081526020016060815260200160006001600160a01b0316815260200160008152602001600015158152602001606081525090565b610b26826112eb565b610b425760405162461bcd60e51b8152600401610562906121cd565b60008281526008602052604090819020815160e08101909252805482908290610b6a90612193565b80601f0160208091040260200160405190810160405280929190818152602001828054610b9690612193565b8015610be35780601f10610bb857610100808354040283529160200191610be3565b820191906000526020600020905b815481529060010190602001808311610bc657829003601f168201915b50505050508152602001600182018054610bfc90612193565b80601f0160208091040260200160405190810160405280929190818152602001828054610c2890612193565b8015610c755780601f10610c4a57610100808354040283529160200191610c75565b820191906000526020600020905b815481529060010190602001808311610c5857829003601f168201915b50505050508152602001600282018054610c8e90612193565b80601f0160208091040260200160405190810160405280929190818152602001828054610cba90612193565b8015610d075780601f10610cdc57610100808354040283529160200191610d07565b820191906000526020600020905b815481529060010190602001808311610cea57829003601f168201915b505050918352505060038201546001600160a01b0316602082015260048201546040820152600582015460ff1615156060820152600682018054608090920191610d5090612193565b80601f0160208091040260200160405190810160405280929190818152602001828054610d7c90612193565b8015610dc95780601f10610d9e57610100808354040283529160200191610dc9565b820191906000526020600020905b815481529060010190602001808311610dac57829003601f168201915b5050505050815250509050919050565b60009182526006602090815260408084206001600160a01b0393909316845291905290205460ff1690565b60606001805461044490612193565b6107c23383836115ff565b610e283383611308565b610e445760405162461bcd60e51b815260040161056290612204565b610e50848484846116cd565b50505050565b6060610e61826112eb565b610e7d5760405162461bcd60e51b8152600401610562906121cd565b60008281526008602052604090206006018054610e9990612193565b80601f0160208091040260200160405190810160405280929190818152602001828054610ec590612193565b80156108415780601f10610ee757610100808354040283529160200191610841565b820191906000526020600020905b815481529060010190602001808311610ef55750939695505050505050565b600082815260066020526040902060010154610f2f816112e1565b610603838361157e565b600860205260009081526040902080548190610f5490612193565b80601f0160208091040260200160405190810160405280929190818152602001828054610f8090612193565b8015610fcd5780601f10610fa257610100808354040283529160200191610fcd565b820191906000526020600020905b815481529060010190602001808311610fb057829003601f168201915b505050505090806001018054610fe290612193565b80601f016020809104026020016040519081016040528092919081815260200182805461100e90612193565b801561105b5780601f106110305761010080835404028352916020019161105b565b820191906000526020600020905b81548152906001019060200180831161103e57829003601f168201915b50505050509080600201805461107090612193565b80601f016020809104026020016040519081016040528092919081815260200182805461109c90612193565b80156110e95780601f106110be576101008083540402835291602001916110e9565b820191906000526020600020905b8154815290600101906020018083116110cc57829003601f168201915b50505060038401546004850154600586015460068701805496976001600160a01b039094169692955060ff90911693509061112390612193565b80601f016020809104026020016040519081016040528092919081815260200182805461114f90612193565b801561119c5780601f106111715761010080835404028352916020019161119c565b820191906000526020600020905b81548152906001019060200180831161117f57829003601f168201915b5050505050905087565b60006111b1836112eb565b80156111d65750816001600160a01b03166111cb8461084d565b6001600160a01b0316145b80156111f4575060008381526008602052604090206005015460ff16155b9392505050565b60006001600160e01b03198216637965db0b60e01b148061042f575061042f82611700565b611229816112eb565b6112705760405162461bcd60e51b8152602060048201526018602482015277115490cdcc8c4e881a5b9d985b1a59081d1bdad95b88125160421b6044820152606401610562565b50565b600081815260046020526040902080546001600160a01b0319166001600160a01b03841690811790915581906112a88261084d565b6001600160a01b03167f8c5be1e5ebec7d5bd14f71427d1e84f3dd0314c0f7b2291e5b200ac8c7c3b92560405160405180910390a45050565b6112708133611750565b6000908152600260205260409020546001600160a01b0316151590565b6000806113148361084d565b9050806001600160a01b0316846001600160a01b0316148061135b57506001600160a01b0380821660009081526005602090815260408083209388168352929052205460ff165b8061137f5750836001600160a01b0316611374846104c7565b6001600160a01b0316145b949350505050565b826001600160a01b031661139a8261084d565b6001600160a01b0316146113c05760405162461bcd60e51b815260040161056290612384565b6001600160a01b0382166114225760405162461bcd60e51b8152602060048201526024808201527f4552433732313a207472616e7366657220746f20746865207a65726f206164646044820152637265737360e01b6064820152608401610562565b61142f83838360016117a9565b826001600160a01b03166114428261084d565b6001600160a01b0316146114685760405162461bcd60e51b815260040161056290612384565b600081815260046020908152604080832080546001600160a01b03199081169091556001600160a01b0387811680865260038552838620805460001901905590871680865283862080546001019055868652600290945282852080549092168417909155905184937fddf252ad1be2c89b69c2b068fc378daa952ba7f163c4a11628f55a4df523b3ef91a4505050565b6115028282610dd9565b6107c25760008281526006602090815260408083206001600160a01b03851684529091529020805460ff1916600117905561153a3390565b6001600160a01b0316816001600160a01b0316837f2f8788117e7eff1d82e926ec794901d17c78024a50270940304540a733656f0d60405160405180910390a45050565b6115888282610dd9565b156107c25760008281526006602090815260408083206001600160a01b0385168085529252808320805460ff1916905551339285917ff6391f5c32d9c69d2a47ea670b442974b53935d1edc7fd64eb21e047a839171b9190a45050565b6107c2828260405180602001604052806000815250611805565b816001600160a01b0316836001600160a01b0316036116605760405162461bcd60e51b815260206004820152601960248201527f4552433732313a20617070726f766520746f2063616c6c6572000000000000006044820152606401610562565b6001600160a01b03838116600081815260056020908152604080832094871680845294825291829020805460ff191686151590811790915591519182527f17307eab39ab6107e8899845ad3d59bd9653f200f220920489ca2b5937696c31910160405180910390a3505050565b6116d8848484611387565b6116e484848484611838565b610e505760405162461bcd60e51b8152600401610562906123c9565b60006001600160e01b031982166380ac58cd60e01b148061173157506001600160e01b03198216635b5e139f60e01b145b8061042f57506301ffc9a760e01b6001600160e01b031983161461042f565b61175a8282610dd9565b6107c25761176781611939565b61177283602061194b565b60405160200161178392919061241b565b60408051601f198184030181529082905262461bcd60e51b825261056291600401611ce5565b6001600160a01b038416156118005760405162461bcd60e51b815260206004820152601f60248201527f536f756c626f756e643a205472616e73666572206e6f7420616c6c6f776564006044820152606401610562565b610e50565b61180f8383611ae7565b61181c6000848484611838565b6106035760405162461bcd60e51b8152600401610562906123c9565b60006001600160a01b0384163b1561192e57604051630a85bd0160e11b81526001600160a01b0385169063150b7a029061187c903390899088908890600401612490565b6020604051808303816000875af19250505080156118b7575060408051601f3d908101601f191682019092526118b4918101906124cd565b60015b611914573d8080156118e5576040519150601f19603f3d011682016040523d82523d6000602084013e6118ea565b606091505b50805160000361190c5760405162461bcd60e51b8152600401610562906123c9565b805181602001fd5b6001600160e01b031916630a85bd0160e11b14905061137f565b506001949350505050565b606061042f6001600160a01b03831660145b6060600061195a836002612500565b611965906002612517565b67ffffffffffffffff81111561197d5761197d611e1e565b6040519080825280601f01601f1916602001820160405280156119a7576020820181803683370190505b509050600360fc1b816000815181106119c2576119c261252a565b60200101906001600160f81b031916908160001a905350600f60fb1b816001815181106119f1576119f161252a565b60200101906001600160f81b031916908160001a9053506000611a15846002612500565b611a20906001612517565b90505b6001811115611a98576f181899199a1a9b1b9c1cb0b131b232b360811b85600f1660108110611a5457611a5461252a565b1a60f81b828281518110611a6a57611a6a61252a565b60200101906001600160f81b031916908160001a90535060049490941c93611a9181612540565b9050611a23565b5083156111f45760405162461bcd60e51b815260206004820181905260248201527f537472696e67733a20686578206c656e67746820696e73756666696369656e746044820152606401610562565b6001600160a01b038216611b3d5760405162461bcd60e51b815260206004820181905260248201527f4552433732313a206d696e7420746f20746865207a65726f20616464726573736044820152606401610562565b611b46816112eb565b15611b935760405162461bcd60e51b815260206004820152601c60248201527f4552433732313a20746f6b656e20616c7265616479206d696e746564000000006044820152606401610562565b611ba16000838360016117a9565b611baa816112eb565b15611bf75760405162461bcd60e51b815260206004820152601c60248201527f4552433732313a20746f6b656e20616c7265616479206d696e746564000000006044820152606401610562565b6001600160a01b038216600081815260036020908152604080832080546001019055848352600290915280822080546001600160a01b0319168417905551839291907fddf252ad1be2c89b69c2b068fc378daa952ba7f163c4a11628f55a4df523b3ef908290a45050565b6001600160e01b03198116811461127057600080fd5b600060208284031215611c8a57600080fd5b81356111f481611c62565b60005b83811015611cb0578181015183820152602001611c98565b50506000910152565b60008151808452611cd1816020860160208601611c95565b601f01601f19169290920160200192915050565b6020815260006111f46020830184611cb9565b600060208284031215611d0a57600080fd5b5035919050565b80356001600160a01b0381168114611d2857600080fd5b919050565b60008060408385031215611d4057600080fd5b611d4983611d11565b946020939093013593505050565b600080600060608486031215611d6c57600080fd5b611d7584611d11565b9250611d8360208501611d11565b9150604084013590509250925092565b60008060408385031215611da657600080fd5b82359150611db660208401611d11565b90509250929050565b600060208284031215611dd157600080fd5b6111f482611d11565b6020808252825182820181905260009190848201906040850190845b81811015611e1257835183529284019291840191600101611df6565b50909695505050505050565b634e487b7160e01b600052604160045260246000fd5b600067ffffffffffffffff80841115611e4f57611e4f611e1e565b604051601f8501601f19908116603f01168101908282118183101715611e7757611e77611e1e565b81604052809350858152868686011115611e9057600080fd5b858560208301376000602087830101525050509392505050565b600082601f830112611ebb57600080fd5b6111f483833560208501611e34565b600080600080600060a08688031215611ee257600080fd5b611eeb86611d11565b9450602086013567ffffffffffffffff80821115611f0857600080fd5b611f1489838a01611eaa565b95506040880135915080821115611f2a57600080fd5b611f3689838a01611eaa565b94506060880135915080821115611f4c57600080fd5b611f5889838a01611eaa565b93506080880135915080821115611f6e57600080fd5b50611f7b88828901611eaa565b9150509295509295909350565b602081526000825160e06020840152611fa5610100840182611cb9565b90506020840151601f1980858403016040860152611fc38383611cb9565b92506040860151915080858403016060860152611fe08383611cb9565b925060018060a01b036060870151166080860152608086015160a086015260a0860151915061201360c086018315159052565b60c08601519150808584030160e08601525061202f8282611cb9565b95945050505050565b6000806040838503121561204b57600080fd5b61205483611d11565b91506020830135801515811461206957600080fd5b809150509250929050565b6000806000806080858703121561208a57600080fd5b61209385611d11565b93506120a160208601611d11565b925060408501359150606085013567ffffffffffffffff8111156120c457600080fd5b8501601f810187136120d557600080fd5b6120e487823560208401611e34565b91505092959194509250565b60e08152600061210360e083018a611cb9565b8281036020840152612115818a611cb9565b905082810360408401526121298189611cb9565b6001600160a01b03881660608501526080840187905285151560a085015283810360c0850152905061215b8185611cb9565b9a9950505050505050505050565b6000806040838503121561217c57600080fd5b61218583611d11565b9150611db660208401611d11565b600181811c908216806121a757607f821691505b6020821081036121c757634e487b7160e01b600052602260045260246000fd5b50919050565b60208082526019908201527f43726564656e7469616c20646f6573206e6f7420657869737400000000000000604082015260600190565b6020808252602d908201527f4552433732313a2063616c6c6572206973206e6f7420746f6b656e206f776e6560408201526c1c881bdc88185c1c1c9bdd9959609a1b606082015260800190565b601f82111561060357600081815260208120601f850160051c810160208610156122785750805b601f850160051c820191505b8181101561229757828155600101612284565b505050505050565b815167ffffffffffffffff8111156122b9576122b9611e1e565b6122cd816122c78454612193565b84612251565b602080601f83116001811461230257600084156122ea5750858301515b600019600386901b1c1916600185901b178555612297565b600085815260208120601f198616915b8281101561233157888601518255948401946001909101908401612312565b508582101561234f5787850151600019600388901b60f8161c191681555b5050505050600190811b01905550565b6040815260006123726040830185611cb9565b828103602084015261202f8185611cb9565b60208082526025908201527f4552433732313a207472616e736665722066726f6d20696e636f72726563742060408201526437bbb732b960d91b606082015260800190565b60208082526032908201527f4552433732313a207472616e7366657220746f206e6f6e20455243373231526560408201527131b2b4bb32b91034b6b83632b6b2b73a32b960711b606082015260800190565b7f416363657373436f6e74726f6c3a206163636f756e7420000000000000000000815260008351612453816017850160208801611c95565b7001034b99036b4b9b9b4b733903937b6329607d1b6017918401918201528351612484816028840160208801611c95565b01602801949350505050565b6001600160a01b03858116825284166020820152604081018390526080606082018190526000906124c390830184611cb9565b9695505050505050565b6000602082840312156124df57600080fd5b81516111f481611c62565b634e487b7160e01b600052601160045260246000fd5b808202811582820484141761042f5761042f6124ea565b8082018082111561042f5761042f6124ea565b634e487b7160e01b600052603260045260246000fd5b60008161254f5761254f6124ea565b50600019019056fea2646970667358221220521ddaa4d834753977c14dcbc050d92ccb59192aafb4ca44b9736bd8ce0a454d64736f6c63430008130033",
  "linkReferences": {},
  "deployedLinkReferences": {}
}