{
  "_format": "hh-sol-artifact-1",
  "contractName": "RewardSystem",
  "sourceName": "contracts/RewardSystem.sol",
  "abi": [
    {
      "inputs": [
        {
          "internalType": "address",
          "name": "_rewardToken",
          "type": "address"
        },
        {
          "internalType": "address",
          "name": "_credentialNFT",
          "type": "address"
        }
      ],
      "stateMutability": "nonpayable",
      "type": "constructor"
    },
    {
      "anonymous": false,
      "inputs": [
        {
          "indexed": true,
          "internalType": "uint256",
          "name": "eventId",
          "type": "uint256"
        },
        {
          "indexed": true,
          "internalType": "address",
          "name": "student",
          "type": "address"
        },
        {
          "indexed": false,
          "internalType": "uint256",
          "name": "tokensAwarded",
          "type": "uint256"
        },
        {
          "indexed": false,
          "internalType": "uint256",
          "name": "credentialId",
          "type": "uint256"
        }
      ],
      "name": "AttendanceRecorded",
      "type": "event"
    },
    {
      "anonymous": false,
      "inputs": [
        {
          "indexed": true,
          "internalType": "uint256",
          "name": "eventId",
          "type": "uint256"
        }
      ],
      "name": "EventClosed",
      "type": "event"
    },
    {
      "anonymous": false,
      "inputs": [
        {
          "indexed": true,
          "internalType": "uint256",
          "name": "eventId",
          "type": "uint256"
        },
        {
          "indexed": false,
          "internalType": "string",
          "name": "name",
          "type": "string"
        },
        {
          "indexed": false,
          "internalType": "string",
          "name": "eventType",
          "type": "string"
        },
        {
          "indexed": false,
          "internalType": "uint256",
          "name": "rewardAmount",
          "type": "uint256"
        },
        {
          "indexed": false,
          "internalType": "address",
          "name": "organizer",
          "type": "address"
        }
      ],
      "name": "EventCreated",
      "type": "event"
    },
    {
      "anonymous": false,
      "inputs": [
        {
          "indexed": true,
          "internalType": "bytes32",
          "name": "role",
          "type": "bytes32"
        },
        {
          "indexed": true,
          "internalType": "bytes32",
          "name": "previousAdminRole",
          "type": "bytes32"
        },
        {
          "indexed": true,
          "internalType": "bytes32",
          "name": "newAdminRole",
          "type": "bytes32"
        }
      ],
      "name": "RoleAdminChanged",
      "type": "event"
    },
    {
      "anonymous": false,
      "inputs": [
        {
          "indexed": true,
          "internalType": "bytes32",
          "name": "role",
          "type": "bytes32"
        },
        {
          "indexed": true,
          "internalType": "address",
          "name": "account",
          "type": "address"
        },
        {
          "indexed": true,
          "internalType": "address",
          "name": "sender",
          "type": "address"
        }
      ],
      "name": "RoleGranted",
      "type": "event"
    },
    {
      "anonymous": false,
      "inputs": [
        {
          "indexed": true,
          "internalType": "bytes32",
          "name": "role",
          "type": "bytes32"
        },
        {
          "indexed": true,
          "internalType": "address",
          "name": "account",
          "type": "address"
        },
        {
          "indexed": true,
          "internalType": "address",
          "name": "sender",
          "type": "address"
        }
      ],
      "name": "RoleRevoked",
      "type": "event"
    },
    {
      "inputs": [],
      "name": "ADMIN_ROLE",
      "outputs": [
        {
          "internalType": "bytes32",
          "name": "",
          "type": "bytes32"
        }
      ],
      "stateMutability": "view",
      "type": "function"
    },
    {
      "inputs": [],
      "name": "DEFAULT_ADMIN_ROLE",
      "outputs": [
        {
          "internalType": "bytes32",
          "name": "",
          "type": "bytes32"
        }
      ],
      "stateMutability": "view",
      "type": "function"
    },
    {
      "inputs": [],
      "name": "ORGANIZER_ROLE",
      "outputs": [
        {
          "internalType": "bytes32",
          "name": "",
          "type": "bytes32"
        }
      ],
      "stateMutability": "view",
      "type": "function"
    },
    {
      "inputs": [
        {
          "internalType": "address",
          "name": "organizer",
          "type": "address"
        }
      ],
      "name": "addOrganizer",
      "outputs": [],
      "stateMutability": "nonpayable",
      "type": "function"
    },
    {
      "inputs": [
        {
          "internalType": "uint256",
          "name": "eventId",
          "type": "uint256"
        }
      ],
      "name": "closeEvent",
      "outputs": [],
      "stateMutability": "nonpayable",
      "type": "function"
    },
    {
      "inputs": [
        {
          "internalType": "string",
          "name": "name",
          "type": "string"
        },
        {
          "internalType": "string",
          "name": "eventType",
          "type": "string"
        },
        {
          "internalType": "string",
          "name": "description",
          "type": "string"
        },
        {
          "internalType": "uint256",
          "name": "rewardAmount",
          "type": "uint256"
        },
        {
          "internalType": "bool",
          "name": "issueCertificate",
          "type": "bool"
        }
      ],
      "name": "createEvent",
      "outputs": [
        {
          "internalType": "uint256",
          "name": "",
          "type": "uint256"
        }
      ],
      "stateMutability": "nonpayable",
      "type": "function"
    },
    {
      "inputs": [],
      "name": "credentialNFT",
      "outputs": [
        {
          "internalType": "contract CredentialNFT",
          "name": "",
          "type": "address"
        }
      ],
      "stateMutability": "view",
      "type": "function"
    },
    {
      "inputs": [
        {
          "internalType": "uint256",
          "name": "",
          "type": "uint256"
        },
        {
          "internalType": "address",
          "name": "",
          "type": "address"
        }
      ],
      "name": "eventAttendance",
      "outputs": [
        {
          "internalType": "bool",
          "name": "",
          "type": "bool"
        }
      ],
      "stateMutability": "view",
      "type": "function"
    },
    {
      "inputs": [
        {
          "internalType": "uint256",
          "name": "",
          "type": "uint256"
        }
      ],
      "name": "events",
      "outputs": [
        {
          "internalType": "uint256",
          "name": "id",
          "type": "uint256"
        },
        {
          "internalType": "string",
          "name": "name",
          "type": "string"
        },
        {
          "internalType": "string",
          "name": "eventType",
          "type": "string"
        },
        {
          "internalType": "string",
          "name": "description",
          "type": "string"
        },
        {
          "internalType": "address",
          "name": "organizer",
          "type": "address"
        },
        {
          "internalType": "uint256",
          "name": "rewardAmount",
          "type": "uint256"
        },
        {
          "internalType": "bool",
          "name": "issueCertificate",
          "type": "bool"
        },
        {
          "internalType": "uint256",
          "name": "createdAt",
          "type": "uint256"
        },
        {
          "internalType": "bool",
          "name": "active",
          "type": "bool"
        }
      ],
      "stateMutability": "view",
      "type": "function"
    },
    {
      "inputs": [
        {
          "internalType": "uint256",
          "name": "eventId",
          "type": "uint256"
        }
      ],
      "name": "getEvent",
      "outputs": [
        {
          "components": [
            {
              "internalType": "uint256",
              "name": "id",
              "type": "uint256"
            },
            {
              "internalType": "string",
              "name": "name",
              "type": "string"
            },
            {
              "internalType": "string",
              "name": "eventType",
              "type": "string"
            },
            {
              "internalType": "string",
              "name": "description",
              "type": "string"
            },
            {
              "internalType": "address",
              "name": "organizer",
              "type": "address"
            },
            {
              "internalType": "uint256",
              "name": "rewardAmount",
              "type": "uint256"
            },
            {
              "internalType": "bool",
              "name": "issueCertificate",
              "type": "bool"
            },
            {
              "internalType": "uint256",
              "name": "createdAt",
              "type": "uint256"
            },
            {
              "internalType": "bool",
              "name": "active",
              "type": "bool"
            }
          ],
          "internalType": "struct RewardSystem.Event",
          "name": "",
          "type": "tuple"
        }
      ],
      "stateMutability": "view",
      "type": "function"
    },
    {
      "inputs": [
        {
          "internalType": "bytes32",
          "name": "role",
          "type": "bytes32"
        }
      ],
      "name": "getRoleAdmin",
      "outputs": [
        {
          "internalType": "bytes32",
          "name": "",
          "type": "bytes32"
        }
      ],
      "stateMutability": "view",
      "type": "function"
    },
    {
      "inputs": [
        {
          "internalType": "address",
          "name": "student",
          "type": "address"
        }
      ],
      "name": "getStudentEvents",
      "outputs": [
        {
          "internalType": "uint256[]",
          "name": "",
          "type": "uint256[]"
        }
      ],
      "stateMutability": "view",
      "type": "function"
    },
    {
      "inputs": [
        {
          "internalType": "address",
          "name": "student",
          "type": "address"
        }
      ],
      "name": "getStudentRecord",
      "outputs": [
        {
          "components": [
            {
              "internalType": "uint256",
              "name": "totalTokens",
              "type": "uint256"
            },
            {
              "internalType": "uint256",
              "name": "totalEvents",
              "type": "uint256"
            },
            {
              "internalType": "uint256[]",
              "name": "eventIds",
              "type": "uint256[]"
            }
          ],
          "internalType": "struct RewardSystem.StudentRecord",
          "name": "",
          "type": "tuple"
        }
      ],
      "stateMutability": "view",
      "type": "function"
    },
    {
      "inputs": [],
      "name": "getTotalEvents",
      "outputs": [
        {
          "internalType": "uint256",
          "name": "",
          "type": "uint256"
        }
      ],
      "stateMutability": "view",
      "type": "function"
    },
    {
      "inputs": [
        {
          "internalType": "bytes32",
          "name": "role",
          "type": "bytes32"
        },
        {
          "internalType": "address",
          "name": "account",
          "type": "address"
        }
      ],
      "name": "grantRole",
      "outputs": [],
      "stateMutability": "nonpayable",
      "type": "function"
    },
    {
      "inputs": [
        {
          "internalType": "uint256",
          "name": "eventId",
          "type": "uint256"
        },
        {
          "internalType": "address",
          "name": "student",
          "type": "address"
        }
      ],
      "name": "hasAttended",
      "outputs": [
        {
          "internalType": "bool",
          "name": "",
          "type": "bool"
        }
      ],
      "stateMutability": "view",
      "type": "function"
    },
    {
      "inputs": [
        {
          "internalType": "bytes32",
          "name": "role",
          "type": "bytes32"
        },
        {
          "internalType": "address",
          "name": "account",
          "type": "address"
        }
      ],
      "name": "hasRole",
      "outputs": [
        {
          "internalType": "bool",
          "name": "",
          "type": "bool"
        }
      ],
      "stateMutability": "view",
      "type": "function"
    },
    {
      "inputs": [
        {
          "internalType": "uint256",
          "name": "eventId",
          "type": "uint256"
        },
        {
          "internalType": "address",
          "name": "student",
          "type": "address"
        }
      ],
      "name": "recordAttendance",
      "outputs": [
        {
          "internalType": "uint256",
          "name": "",
          "type": "uint256"
        }
      ],
      "stateMutability": "nonpayable",
      "type": "function"
    },
    {
      "inputs": [
        {
          "internalType": "uint256",
          "name": "eventId",
          "type": "uint256"
        },
        {
          "internalType": "address[]",
          "name": "students",
          "type": "address[]"
        }
      ],
      "name": "recordMultipleAttendance",
      "outputs": [],
      "stateMutability": "nonpayable",
      "type": "function"
    },
    {
      "inputs": [
        {
          "internalType": "address",
          "name": "organizer",
          "type": "address"
        }
      ],
      "name": "removeOrganizer",
      "outputs": [],
      "stateMutability": "nonpayable",
      "type": "function"
    },
    {
      "inputs": [
        {
          "internalType": "bytes32",
          "name": "role",
          "type": "bytes32"
        },
        {
          "internalType": "address",
          "name": "account",
          "type": "address"
        }
      ],
      "name": "renounceRole",
      "outputs": [],
      "stateMutability": "nonpayable",
      "type": "function"
    },
    {
      "inputs": [
        {
          "internalType": "bytes32",
          "name": "role",
          "type": "bytes32"
        },
        {
          "internalType": "address",
          "name": "account",
          "type": "address"
        }
      ],
      "name": "revokeRole",
      "outputs": [],
      "stateMutability": "nonpayable",
      "type": "function"
    },
    {
      "inputs": [],
      "name": "rewardToken",
      "outputs": [
        {
          "internalType": "contract RewardToken",
          "name": "",
          "type": "address"
        }
      ],
      "stateMutability": "view",
      "type": "function"
    },
    {
      "inputs": [
        {
          "internalType": "address",
          "name": "",
          "type": "address"
        },
        {
          "internalType": "uint256",
          "name": "",
          "type": "uint256"
        }
      ],
      "name": "studentEvents",
      "outputs": [
        {
          "internalType": "uint256",
          "name": "",
          "type": "uint256"
        }
      ],
      "stateMutability": "view",
      "type": "function"
    },
    {
      "inputs": [
        {
          "internalType": "address",
          "name": "",
          "type": "address"
        }
      ],
      "name": "studentRecords",
      "outputs": [
        {
          "internalType": "uint256",
          "name": "totalTokens",
          "type": "uint256"
        },
        {
          "internalType": "uint256",
          "name": "totalEvents",
          "type": "uint256"
        }
      ],
      "stateMutability": "view",
      "type": "function"
    },
    {
      "inputs": [
        {
          "internalType": "bytes4",
          "name": "interfaceId",
          "type": "bytes4"
        }
      ],
      "name": "supportsInterface",
      "outputs": [
        {
          "internalType": "bool",
          "name": "",
          "type": "bool"
        }
      ],
      "stateMutability": "view",
      "type": "function"
    }
  ],
  "bytecode": "0x60806040523480156200001157600080fd5b506040516200233538038062002335833981016040819052620000349162000163565b600180546001600160a01b038085166001600160a01b031992831617909255600280549284169290911691909117905562000071600033620000a5565b6200009d7fa49807205ce4d355092ef5a8a18f56e8913cf4a201fbe287825b095693c2177533620000a5565b50506200019b565b6000828152602081815260408083206001600160a01b038516845290915290205460ff1662000142576000828152602081815260408083206001600160a01b03851684529091529020805460ff19166001179055620001013390565b6001600160a01b0316816001600160a01b0316837f2f8788117e7eff1d82e926ec794901d17c78024a50270940304540a733656f0d60405160405180910390a45b5050565b80516001600160a01b03811681146200015e57600080fd5b919050565b600080604083850312156200017757600080fd5b620001828362000146565b9150620001926020840162000146565b90509250929050565b61218a80620001ab6000396000f3fe608060405234801561001057600080fd5b506004361061018e5760003560e01c80636d1884e0116100de578063a0ea32c211610097578063d547741f11610071578063d547741f14610409578063d7037c2c1461041c578063e4725f021461043c578063f7c618c11461044f57600080fd5b8063a0ea32c2146103b5578063a217fddf146103ee578063b954e32d146103f657600080fd5b80636d1884e01461031a57806375b238fc1461033a5780637909cb591461034f57806385fcd1541461036457806391d1485414610377578063934fcd1b1461038a57600080fd5b80632f2ff15d1161014b57806344ade56d1161012557806344ade56d146102d95780634b1417de146102ec57806360b03d14146102ff578063616069401461031257600080fd5b80632f2ff15d1461029357806333295c10146102a657806336568abe146102c657600080fd5b806301ffc9a7146101935780630b791430146101bb5780631c8fc7c4146101e3578063248a9ca31461021f5780632b5d31cf146102505780632ee07c001461027e575b600080fd5b6101a66101a136600461182c565b610462565b60405190151581526020015b60405180910390f35b6101ce6101c9366004611856565b610499565b6040516101b2999897969594939291906118bf565b61020a6101f1366004611956565b6006602052600090815260409020805460019091015482565b604080519283526020830191909152016101b2565b61024261022d366004611856565b60009081526020819052604090206001015490565b6040519081526020016101b2565b6101a661025e366004611971565b600560209081526000928352604080842090915290825290205460ff1681565b61029161028c366004611856565b610689565b005b6102916102a1366004611971565b61078f565b6102b96102b4366004611956565b6107b9565b6040516101b2919061199d565b6102916102d4366004611971565b610825565b6102916102e7366004611956565b6108a3565b6102426102fa366004611971565b6108d3565b61024261030d366004611a98565b610eae565b61024261109b565b61032d610328366004611856565b6110ab565b6040516101b29190611b44565b61024260008051602061213583398151915281565b61024260008051602061211583398151915281565b610242610372366004611c07565b611334565b6101a6610385366004611971565b611365565b60025461039d906001600160a01b031681565b6040516001600160a01b0390911681526020016101b2565b6101a66103c3366004611971565b60009182526005602090815260408084206001600160a01b0393909316845291905290205460ff1690565b610242600081565b610291610404366004611c31565b61138e565b610291610417366004611971565b611423565b61042f61042a366004611956565b611448565b6040516101b29190611cea565b61029161044a366004611956565b6114f8565b60015461039d906001600160a01b031681565b60006001600160e01b03198216637965db0b60e01b148061049357506301ffc9a760e01b6001600160e01b03198316145b92915050565b600460205260009081526040902080546001820180549192916104bb90611d50565b80601f01602080910402602001604051908101604052809291908181526020018280546104e790611d50565b80156105345780601f1061050957610100808354040283529160200191610534565b820191906000526020600020905b81548152906001019060200180831161051757829003601f168201915b50505050509080600201805461054990611d50565b80601f016020809104026020016040519081016040528092919081815260200182805461057590611d50565b80156105c25780601f10610597576101008083540402835291602001916105c2565b820191906000526020600020905b8154815290600101906020018083116105a557829003601f168201915b5050505050908060030180546105d790611d50565b80601f016020809104026020016040519081016040528092919081815260200182805461060390611d50565b80156106505780601f1061062557610100808354040283529160200191610650565b820191906000526020600020905b81548152906001019060200180831161063357829003601f168201915b505050600484015460058501546006860154600787015460089097015495966001600160a01b039093169591945060ff90811693501689565b6000818152600460208190526040909120908101546001600160a01b03163314806106c757506106c760008051602061213583398151915233611365565b6107095760405162461bcd60e51b815260206004820152600e60248201526d139bdd08185d5d1a1bdc9a5e995960921b60448201526064015b60405180910390fd5b600881015460ff166107545760405162461bcd60e51b8152602060048201526014602482015273115d995b9d08185b1c9958591e4818db1bdcd95960621b6044820152606401610700565b60088101805460ff1916905560405182907fe3ac82dc75b50536ff2bf2861de7d76422590831b9e557b52b35b4c99df25ff990600090a25050565b6000828152602081905260409020600101546107aa81611528565b6107b48383611535565b505050565b6001600160a01b03811660009081526007602090815260409182902080548351818402810184019094528084526060939283018282801561081957602002820191906000526020600020905b815481526020019060010190808311610805575b50505050509050919050565b6001600160a01b03811633146108955760405162461bcd60e51b815260206004820152602f60248201527f416363657373436f6e74726f6c3a2063616e206f6e6c792072656e6f756e636560448201526e103937b632b9903337b91039b2b63360891b6064820152608401610700565b61089f82826115b9565b5050565b6000805160206121358339815191526108bb81611528565b61089f60008051602061211583398151915283611423565b6000828152600460209081526040808320815161012081019092528054825260018101805485948401919061090790611d50565b80601f016020809104026020016040519081016040528092919081815260200182805461093390611d50565b80156109805780601f1061095557610100808354040283529160200191610980565b820191906000526020600020905b81548152906001019060200180831161096357829003601f168201915b5050505050815260200160028201805461099990611d50565b80601f01602080910402602001604051908101604052809291908181526020018280546109c590611d50565b8015610a125780601f106109e757610100808354040283529160200191610a12565b820191906000526020600020905b8154815290600101906020018083116109f557829003601f168201915b50505050508152602001600382018054610a2b90611d50565b80601f0160208091040260200160405190810160405280929190818152602001828054610a5790611d50565b8015610aa45780601f10610a7957610100808354040283529160200191610aa4565b820191906000526020600020905b815481529060010190602001808311610a8757829003601f168201915b505050918352505060048201546001600160a01b0316602082015260058201546040820152600682015460ff9081161515606083015260078301546080830152600890920154909116151560a090910152610100810151909150610b405760405162461bcd60e51b81526020600482015260136024820152724576656e74206973206e6f742061637469766560681b6044820152606401610700565b80608001516001600160a01b0316336001600160a01b03161480610b775750610b7760008051602061213583398151915233611365565b610bc35760405162461bcd60e51b815260206004820152601d60248201527f4e6f7420617574686f72697a656420666f722074686973206576656e740000006044820152606401610700565b60008481526005602090815260408083206001600160a01b038716845290915290205460ff1615610c365760405162461bcd60e51b815260206004820152601b60248201527f417474656e64616e636520616c7265616479207265636f7264656400000000006044820152606401610700565b60008481526005602090815260408083206001600160a01b03871684529091529020805460ff1916600117905560a081015115610cda5760015460a082015160208301516040516334ff261960e21b81526001600160a01b039093169263d3fc986492610ca7928892600401611d8a565b600060405180830381600087803b158015610cc157600080fd5b505af1158015610cd5573d6000803e3d6000fd5b505050505b60008160c0015115610db65760008260200151604051602001610cfd9190611dba565b604051602081830303815290604052905060008360200151604051602001610d259190611dec565b60408051601f19818403018152828252600254918701516331c5fbbf60e11b84529093506001600160a01b039091169163638bf77e91610d6e918a919087908790600401611e31565b6020604051808303816000875af1158015610d8d573d6000803e3d6000fd5b505050506040513d601f19601f82011682018060405250810190610db19190611e98565b925050505b60a08201516001600160a01b03851660009081526006602052604081208054909190610de3908490611ec7565b90915550506001600160a01b03841660009081526006602052604081206001908101805491929091610e16908490611ec7565b90915550506001600160a01b0384166000818152600660209081526040808320600201805460018082018355918552838520018a9055848452600783528184208054918201815584529282902090920188905560a0850151825190815290810184905287917f6e5338e0627d1ac85810214d8974056e946a83edc9db93459d631158a6a567d6910160405180910390a3949350505050565b6000610ec860008051602061213583398151915233611365565b80610ee65750610ee660008051602061211583398151915233611365565b610f325760405162461bcd60e51b815260206004820152601f60248201527f4e6f7420617574686f72697a656420746f20637265617465206576656e7473006044820152606401610700565b610f40600380546001019055565b6000610f4b60035490565b604080516101208101825282815260208082018b81528284018b9052606083018a905233608084015260a0830189905287151560c08401524260e084015260016101008401819052600086815260049093529390912082518155905193945090929091820190610fbb9082611f28565b5060408201516002820190610fd09082611f28565b5060608201516003820190610fe59082611f28565b5060808201516004820180546001600160a01b039092166001600160a01b031990921691909117905560a0820151600582015560c082015160068201805491151560ff1992831617905560e0830151600783015561010090920151600890910180549115159190921617905560405181907fa884fd49270875e0106f15dc6bcbe27a58e6166f2bd3c8587e4f3b03a2c0c9c990611089908a908a9089903390611fe8565b60405180910390a29695505050505050565b60006110a660035490565b905090565b6111076040518061012001604052806000815260200160608152602001606081526020016060815260200160006001600160a01b0316815260200160008152602001600015158152602001600081526020016000151581525090565b60046000838152602001908152602001600020604051806101200160405290816000820154815260200160018201805461114090611d50565b80601f016020809104026020016040519081016040528092919081815260200182805461116c90611d50565b80156111b95780601f1061118e576101008083540402835291602001916111b9565b820191906000526020600020905b81548152906001019060200180831161119c57829003601f168201915b505050505081526020016002820180546111d290611d50565b80601f01602080910402602001604051908101604052809291908181526020018280546111fe90611d50565b801561124b5780601f106112205761010080835404028352916020019161124b565b820191906000526020600020905b81548152906001019060200180831161122e57829003601f168201915b5050505050815260200160038201805461126490611d50565b80601f016020809104026020016040519081016040528092919081815260200182805461129090611d50565b80156112dd5780601f106112b2576101008083540402835291602001916112dd565b820191906000526020600020905b8154815290600101906020018083116112c057829003601f168201915b505050918352505060048201546001600160a01b0316602082015260058201546040820152600682015460ff9081161515606083015260078301546080830152600890920154909116151560a09091015292915050565b6007602052816000526040600020818154811061135057600080fd5b90600052602060002001600091509150505481565b6000918252602082815260408084206001600160a01b0393909316845291905290205460ff1690565b60005b81518110156107b4576005600084815260200190815260200160002060008383815181106113c1576113c161202f565b6020908102919091018101516001600160a01b031682528101919091526040016000205460ff166114115761140f838383815181106114025761140261202f565b60200260200101516108d3565b505b8061141b81612045565b915050611391565b60008281526020819052604090206001015461143e81611528565b6107b483836115b9565b61146c60405180606001604052806000815260200160008152602001606081525090565b6001600160a01b038216600090815260066020908152604091829020825160608101845281548152600182015481840152600282018054855181860281018601875281815292959394938601938301828280156114e857602002820191906000526020600020905b8154815260200190600101908083116114d4575b5050505050815250509050919050565b60008051602061213583398151915261151081611528565b61089f6000805160206121158339815191528361078f565b611532813361161e565b50565b61153f8282611365565b61089f576000828152602081815260408083206001600160a01b03851684529091529020805460ff191660011790556115753390565b6001600160a01b0316816001600160a01b0316837f2f8788117e7eff1d82e926ec794901d17c78024a50270940304540a733656f0d60405160405180910390a45050565b6115c38282611365565b1561089f576000828152602081815260408083206001600160a01b0385168085529252808320805460ff1916905551339285917ff6391f5c32d9c69d2a47ea670b442974b53935d1edc7fd64eb21e047a839171b9190a45050565b6116288282611365565b61089f5761163581611677565b611640836020611689565b60405160200161165192919061205e565b60408051601f198184030181529082905262461bcd60e51b8252610700916004016120d3565b60606104936001600160a01b03831660145b606060006116988360026120e6565b6116a3906002611ec7565b67ffffffffffffffff8111156116bb576116bb6119e1565b6040519080825280601f01601f1916602001820160405280156116e5576020820181803683370190505b509050600360fc1b816000815181106117005761170061202f565b60200101906001600160f81b031916908160001a905350600f60fb1b8160018151811061172f5761172f61202f565b60200101906001600160f81b031916908160001a90535060006117538460026120e6565b61175e906001611ec7565b90505b60018111156117d6576f181899199a1a9b1b9c1cb0b131b232b360811b85600f16601081106117925761179261202f565b1a60f81b8282815181106117a8576117a861202f565b60200101906001600160f81b031916908160001a90535060049490941c936117cf816120fd565b9050611761565b5083156118255760405162461bcd60e51b815260206004820181905260248201527f537472696e67733a20686578206c656e67746820696e73756666696369656e746044820152606401610700565b9392505050565b60006020828403121561183e57600080fd5b81356001600160e01b03198116811461182557600080fd5b60006020828403121561186857600080fd5b5035919050565b60005b8381101561188a578181015183820152602001611872565b50506000910152565b600081518084526118ab81602086016020860161186f565b601f01601f19169290920160200192915050565b60006101208b83528060208401526118d98184018c611893565b905082810360408401526118ed818b611893565b90508281036060840152611901818a611893565b6001600160a01b03989098166080840152505060a081019490945291151560c084015260e0830152151561010090910152949350505050565b80356001600160a01b038116811461195157600080fd5b919050565b60006020828403121561196857600080fd5b6118258261193a565b6000806040838503121561198457600080fd5b823591506119946020840161193a565b90509250929050565b6020808252825182820181905260009190848201906040850190845b818110156119d5578351835292840192918401916001016119b9565b50909695505050505050565b634e487b7160e01b600052604160045260246000fd5b604051601f8201601f1916810167ffffffffffffffff81118282101715611a2057611a206119e1565b604052919050565b600082601f830112611a3957600080fd5b813567ffffffffffffffff811115611a5357611a536119e1565b611a66601f8201601f19166020016119f7565b818152846020838601011115611a7b57600080fd5b816020850160208301376000918101602001919091529392505050565b600080600080600060a08688031215611ab057600080fd5b853567ffffffffffffffff80821115611ac857600080fd5b611ad489838a01611a28565b96506020880135915080821115611aea57600080fd5b611af689838a01611a28565b95506040880135915080821115611b0c57600080fd5b50611b1988828901611a28565b9350506060860135915060808601358015158114611b3657600080fd5b809150509295509295909350565b602081528151602082015260006020830151610120806040850152611b6d610140850183611893565b91506040850151601f1980868503016060870152611b8b8483611893565b9350606087015191508086850301608087015250611ba98382611893565b9250506080850151611bc660a08601826001600160a01b03169052565b5060a085015160c085015260c0850151611be460e086018215159052565b5060e0850151610100858101919091529094015115159390920192909252919050565b60008060408385031215611c1a57600080fd5b611c238361193a565b946020939093013593505050565b60008060408385031215611c4457600080fd5b8235915060208084013567ffffffffffffffff80821115611c6457600080fd5b818601915086601f830112611c7857600080fd5b813581811115611c8a57611c8a6119e1565b8060051b9150611c9b8483016119f7565b8181529183018401918481019089841115611cb557600080fd5b938501935b83851015611cda57611ccb8561193a565b82529385019390850190611cba565b8096505050505050509250929050565b6000602080835260808301845182850152818501516040850152604085015160608086015281815180845260a0870191508483019350600092505b80831015611d455783518252928401926001929092019190840190611d25565b509695505050505050565b600181811c90821680611d6457607f821691505b602082108103611d8457634e487b7160e01b600052602260045260246000fd5b50919050565b60018060a01b0384168152826020820152606060408201526000611db16060830184611893565b95945050505050565b60008251611dcc81846020870161186f565b6d202d20436572746966696361746560901b920191825250600e01919050565b7f4177617264656420666f722070617274696369706174696f6e20696e20000000815260008251611e2481601d85016020870161186f565b91909101601d0192915050565b6001600160a01b038516815260a060208201819052600090611e5590830186611893565b8281036040840152611e678186611893565b90508281036060840152611e7b8185611893565b838103608090940193909352505060008152602001949350505050565b600060208284031215611eaa57600080fd5b5051919050565b634e487b7160e01b600052601160045260246000fd5b8082018082111561049357610493611eb1565b601f8211156107b457600081815260208120601f850160051c81016020861015611f015750805b601f850160051c820191505b81811015611f2057828155600101611f0d565b505050505050565b815167ffffffffffffffff811115611f4257611f426119e1565b611f5681611f508454611d50565b84611eda565b602080601f831160018114611f8b5760008415611f735750858301515b600019600386901b1c1916600185901b178555611f20565b600085815260208120601f198616915b82811015611fba57888601518255948401946001909101908401611f9b565b5085821015611fd85787850151600019600388901b60f8161c191681555b5050505050600190811b01905550565b608081526000611ffb6080830187611893565b828103602084015261200d8187611893565b604084019590955250506001600160a01b039190911660609091015292915050565b634e487b7160e01b600052603260045260246000fd5b60006001820161205757612057611eb1565b5060010190565b7f416363657373436f6e74726f6c3a206163636f756e742000000000000000000081526000835161209681601785016020880161186f565b7001034b99036b4b9b9b4b733903937b6329607d1b60179184019182015283516120c781602884016020880161186f565b01602801949350505050565b6020815260006118256020830184611893565b808202811582820484141761049357610493611eb1565b60008161210c5761210c611eb1565b50600019019056fe4d2e7a1e3f5dd6e203f087b15756ccf0e4ccd947fe1b639a38540089a1e47f63a49807205ce4d355092ef5a8a18f56e8913cf4a201fbe287825b095693c21775a26469706673582212200746ef8b14162b482db45abd2864134f86e54dd4d72d67a717aeffccdb01086d64736f6c63430008130033",
  "linkReferences": {},
  "deployedLinkReferences": {}
}